:020000040800F2
:10000000C8090020E11C00082D0800082F0800087E
:1000100033080008370800083B080008000000000B
:100020000000000000000000000000003F08000881
:1000300041080008000000004308000845080008C7
:10004000FB1C0008FB1C0008FB1C0008FB1C000834
:10005000FB1C0008FB1C0008FD190008FB1C000825
:10006000FB1C0008FB1C0008FB1C0008FB1C000814
:10007000FB1C0008FB1C0008FB1C0008FB1C000804
:10008000FB1C0008FB1C0008FB1C0008FB1C0008F4
:10009000FB1C0008FB1C0008FB1C0008FB1C0008E4
:1000A000FB1C0008FB1C0008FB1C0008FB1C0008D4
:1000B000FB1C0008FB1C0008FB1C0008FB1C0008C4
:1000C000FB1C0008FB1C0008FB1C0008FB1C0008B4
:1000D000FB1C0008571C0008FB1C0008FB1C000848
:1000E000FB1C0008FB1C0008FB1C000800F002F8C9
:1000F00000F05AF80AA090E8000C82448344AAF168
:100100000107DA4501D100F04FF8AFF2090EBAE865
:100110000F0013F0010F18BFFB1A43F0010318473B
:10012000643F0000843F00000A444FF0000C10F8C8
:10013000013B13F0070408BF10F8014B1D1108BF65
:1001400010F8015B641E05D010F8016B641E01F805
:10015000016BF9D113F0080F1EBF10F8014BAD1C55
:100160000C1B09D16D1E58BF01F801CBFAD505E073
:1001700014F8016B01F8016B6D1EF9D59142D6D3CD
:10018000704700000023002400250026103A28BFF5
:1001900078C1FBD8520728BF30C148BF0B607047F9
:1001A0001FB51FBD10B510BD02F0CDFE1146FFF703
:1001B000F7FF00F09BF902F0EBFE03B4FFF7F2FF4C
:1001C00003BC01F0EDFC000070B500F0BAFE04467F
:1001D0000A2001F0B2FC00F0FDFE05460021204699
:1001E00003F012FB03D80020FA49087002E0012056
:1001F000F8490870F849204603F03AFA0446F548F1
:100200000078002844D1204603F0CAF980B242F2B7
:10021000107190FBF1F201FB12004FF47A7190FB28
:10022000F1F03030ED490870204603F0B9F980B2A2
:100230004FF47A7190FBF1F201FB1200642190FB04
:10024000F1F03030E54948702E208870204603F0E8
:10025000A7F980B2642190FBF1F201FB12000A21A0
:1002600090FBF1F03030DD49C870204603F098F97A
:1002700080B20A2190FBF1F201FB12003030D74925
:10028000087143204871202088710020C87148E01F
:10029000D0480078012844D12D20D049087020464C
:1002A00003F07EF980B242F2107190FBF1F201FB93
:1002B00012004FF47A7190FBF1F03030C74948706A
:1002C000204603F06DF980B24FF47A7190FBF1F2A1
:1002D00001FB1200642190FBF1F03030BF498870BF
:1002E0002E20C870204603F05BF980B2642190FB99
:1002F000F1F201FB12000A2190FBF1F03030B74916
:100300000871204603F04CF980B20A2190FBF1F20B
:1003100001FB12003030B149487120208871002063
:10032000C871AD49284603F0A3F90546284603F0F5
:1003300037F980B242F2107190FBF1F201FB12002A
:100340004FF47A7190FBF1F03030A54908702846DF
:1003500003F026F980B24FF47A7190FBF1F201FBC1
:100360001200642190FBF1F030309D4948702E203E
:100370008870284603F014F980B2642190FBF1F2F2
:1003800001FB12000A2190FBF1F030309449C87053
:10039000284603F005F980B20A2190FBF1F201FB37
:1003A000120030308E490871252048712020887154
:1003B0000020C87170BD10B501F0ABF98948007814
:1003C00089490870874840784870864880788870E6
:1003D0008448C078C8702F200871824840794871DD
:1003E0008048807988712F20C8717E48007A087211
:1003F0007C48407A4872202088727C480078C87215
:100400007A48407808737A48007808B93A204873E7
:1004100077480078012802D1202073494873734837
:10042000C0787149887371480079C87300200874D6
:1004300010BD2DE9F04104216E4801F0EEFD0320CE
:1004400001F07BFB0421012001F097FA054603F03F
:10045000C7F80446204603F06BF805464FF06632B5
:10046000654B02F07DFE074602F0A0FD044663499D
:10047000204603F0FDF80446204603F091F880B2D0
:100480004FF47A7190FBF1F201FB1200642190FBB2
:10049000F1F030305A4908702E204870204603F0A1
:1004A0007FF880B2642190FBF1F201FB12000A2177
:1004B00090FBF1F0303052498870204603F070F81C
:1004C00080B20A2190FBF1F201FB120030304C495E
:1004D000C870562008712020487188710020C871AA
:1004E0000421444801F097FDBDE8F08186B001F099
:1004F000E7FA01F04FFB00F071FF00F0DBFF4FF473
:10050000165001F05CFB01A801F027FF00F003FD8D
:1005100000F0F6FC00210E2000F0F6FF00210F2075
:1005200000F0F2FF42F21900364908800920887075
:100530000720C87008200871122088604420C86015
:100540003020086100F070FC00F014FB322008231A
:100550002DA200210090084600F003FC3220082361
:100560002BA201210090002000F0FBFB4FF49670BD
:1005700001F0E3FAC820082329A2022100900020FC
:1005800000F0EFFB322008232AA203210090002074
:1005900000F0E7FB4FF4FA7001F0CFFA00F0EAFA4E
:1005A000082326A20021084600F0BEFB082327A24C
:1005B0000121002000F0B8FB082328A2022100201E
:1005C00000F0B2FB082329A20321002000F0ACFBBD
:1005D000FFE00000000200200000C84204020020EA
:1005E0000C0200204002002074020020380200208B
:1005F000030200200008014066664A3F00004843AD
:10060000140200208802002053797374656D000085
:10061000496E697469616C697A696E6700000000EF
:100620002E2E2E2E2E2E2E2E2E2E2E2E2E2E2E2EEA
:1006300000000000446F6E650000000054656D709E
:100640003A72656164696E670000000048756D6903
:100650003A72656164696E670000000032303139BA
:100660002F392F30382031363A32360042617474D7
:100670006572793A72656164696E670055480088F1
:1006800000F40040002858D053480078801C010333
:10069000514840781E3801EB00214F4880781E38C1
:1006A00001EB00104C49C97808441E384B490880BA
:1006B000494841790079801C01EB00101E384749F8
:1006C00088704548C1798079801C01EB00101E3884
:1006D000424908714048417A007A1E3801EB001007
:1006E0001E383E4988603C48C17A807A1E3801EB4A
:1006F00000101E383949C86000203649088000F0D3
:1007000039FA082336A20021084600F00DFB4FF409
:10071000FA7001F012FA082335A20021084600F011
:1007200003FB082334A20121002000F0FDFA082376
:1007300033A20321002000F0F7FAFFF73CFE334814
:100740000068012841D132480078401C30490870C7
:1007500030480078401C2F4908702F48007818B99D
:1007600001202D49087006E02B480078012802D1AD
:10077000002029490870264800780A2804D1002062
:1007800023490870FFF720FD224800780A2804D189
:10079000002020490870FFF74CFE08231F4A002163
:1007A000282000F0C1FA08231D4A0121282000F06A
:1007B000BBFA08231B4A0221002000F0B5FA0823E7
:1007C000194A0321402000F0AFFA4FF4967001F06F
:1007D000B4F953E75C0200209C020020880200204C
:1007E00054696D65205265667265736865640000C2
:1007F00054656D703A00000048756D693A0000005C
:10080000426174746572793A000000001C02002095
:100810000102002002020020030200200402002046
:100820000C0200207402002014020020704700BF58
:10083000FEE700BFFEE700BFFEE700BFFEE7704730
:1008400070477047704700000CB500200190009081
:100850006A48006840F480306849086000BF674813
:10086000006800F4003000900198401C019000984E
:1008700018B90198B0F5A06FF1D16048006800F494
:10088000003010B10120009001E00020009000989D
:1008900001283FD15A48006840F0100058490860CC
:1008A0000846006820F003000860084600680860F9
:1008B00052484068514948600846406848600846C8
:1008C000406848600846406820F47C10486008464C
:1008D000406840F4981048600846006840F0807016
:1008E000086000BF4548006800F000700028F9D09B
:1008F0004248406820F0030040494860084640688C
:1009000040F00200486000BF3C48406800F00C0026
:100910000828F9D10CBD10B5FFF796FF10BD10B532
:100920003648006840F001003449086008464068D5
:100930003449084031494860084600683249084057
:100940002E4908600846006820F4802008600846A8
:10095000406820F4FE0048604FF41F008860FFF7F5
:10096000DAFF4FF000602949086010BD10B5002182
:1009700000200022214B5B6803F00C0121B1042907
:1009800006D0082928D107E0214B224C236027E01C
:100990001F4B204C236023E0184B5B6803F470105E
:1009A000164B5B6803F48032022303EB904022B9BC
:1009B000194B4343174C23600DE0104B5B6803F465
:1009C000003323B1144B4343124C236003E0104B1C
:1009D0004343104C236003E00D4B0E4C236000BFDB
:1009E00000BF064B5B68C3F303130C4CE15C094B7F
:1009F0001B68CB40074C236010BD00000010024074
:100A0000002002400000FFF8FFFFF6FE08ED00E0C6
:100A100000127A002402002000093D002802002074
:100A200010B52021FD4801F0F6FA2021FB4801F025
:100A3000F4FA10BD10B5044600F024FB782000F055
:100A4000C1FBFFF7EDFF002000F0BCFBFFF7E8FF64
:100A5000204600F0B7FBFFF7E3FF00F037FB10BDC7
:100A600010B5044600F00EFB782000F0ABFBFFF75A
:100A7000D7FF402000F0A6FBFFF7D2FF204600F092
:100A8000A1FBFFF7CDFF00F021FB10BD70B50446C0
:100A90000D461DB1E0B2FFF7E3FF02E0E0B2FFF761
:100AA000C9FF70BD70B50646002418E004F1B0001F
:100AB0000021FFF7EBFF00210846FFF7E7FF0021C9
:100AC0001020FFF7E3FF002505E001213046FFF786
:100AD000DDFF681CC5B2802DF7DB601CC4B2082C9A
:100AE000E4DB70BD06E041F6650100E0491E002927
:100AF000FCD1401E0028F6D17047014605E00020D9
:100B000001E0421CD0B27B28FBDB0A1EA1F10101EF
:100B1000F5D1704770B504460D4605F1B0000021CF
:100B2000FFF7B4FF102141EA14100021FFF7AEFFD8
:100B300004F00F000021FFF7A9FF70BD10B50021E0
:100B40008D20FFF7A3FF00211420FFF79FFF002156
:100B5000AF20FFF79BFF10BD10B500218D20FFF7E0
:100B600095FF00211020FFF791FF0021AE20FFF735
:100B70008DFF10BD70B5002418E004F1B000002115
:100B8000FFF784FF00210846FFF780FF00211020B7
:100B9000FFF77CFF002505E001210020FFF776FF2D
:100BA000681CC5B2802DF7DB601CC4B2082CE4DBE6
:100BB00070BD70B5002418E004F1B0000021FFF70B
:100BC00065FF00210846FFF761FF00211020FFF7B5
:100BD0005DFF002505E001210846FFF757FF681C6F
:100BE000C5B2802DF7DB601CC4B2082CE4DB70BDFD
:100BF0002DE9F04707460E46904699460025002409
:100C0000A8F12000C5B27F2F02DD0027B01CC6B2BC
:100C1000B9F1100F24D131463846FFF77BFF00248D
:100C200008E004EB05117E4A505C0121FFF72EFF1E
:100C3000601CC4B2082CF4DB701CC1B23846FFF74C
:100C400069FF002409E004EB05110831744A505C87
:100C50000121FFF71BFF601CC4B2082CF3DB12E07C
:100C600031463846FFF756FF00240AE005EB450100
:100C70006C4A02EB4101085D0121FFF707FF601C90
:100C8000C4B2062CF2DBBDE8F08710B502460120A5
:100C900000E050430B1EA1F10104E1B2F9D110BDF7
:100CA0002DE9FF5F074691461E460E9D4FF0000A54
:100CB000002435E0301B401EC1B20A20FFF7E5FFDB
:100CC000B9FBF0F00A21B0FBF1F201FB1208BAF116
:100CD000000F14D1701EA04211DDB8F1000F0CD12D
:100CE000AB4605EBDB71491001FB0471C8B22B4622
:100CF00020220199FFF77CFF10E04FF0010AAB467C
:100D000005EBDB71491001FB0471C8B208F1300139
:100D1000CAB22B460199FFF76BFF00BF601CC4B23B
:100D2000B442C7DBBDE8FF9F2DE9F04104460F4602
:100D30001546984600260FE0AA5D434639462046F0
:100D4000FFF756FF04F10800C4B2782C02DD00243E
:100D5000B81CC7B2701CC6B2A85D0028ECD1BDE8B3
:100D6000F0812DE9F04704460F4615469846DDF818
:100D70002090002612E0AA5D434639462046FFF740
:100D800037FF04F10800C4B2782C02DD0024B81C3F
:100D9000C7B2701CC6B2484600F0CFFEA85D00285E
:100DA000E9D1BDE8F0872DE9F05F06460F46904691
:100DB0001C46DDF828A04FF0000BE11704EB517141
:100DC000C910A4EBC10131B92046E11704EB517100
:100DD000C1F3C70506E02046E11704EB5171C910C5
:100DE000491CCDB23D4615E029463046FFF792FE3C
:100DF000B1460BE059460BF1010B1AF80100012135
:100E0000FFF744FE09F1010000F0FF09C145F1DBE5
:100E1000681CC5B2A542E7DBBDE8F09F00080140B1
:100E2000923A00086A38000810B5C82000F085FE24
:100E30000021AE20FFF72AFE00210846FFF726FE1C
:100E400000211020FFF722FE00214020FFF71EFEA8
:100E50000021B020FFF71AFE00218120FFF716FEC7
:100E600000212020FFF712FE0021A120FFF70EFE37
:100E70000021C020FFF70AFE0021A620FFF706FE92
:100E80000021A820FFF702FE00211F20FFF7FEFD32
:100E90000021D320FFF7FAFD00210846FFF7F6FDF9
:100EA0000021D520FFF7F2FD00210120FFF7EEFD24
:100EB0000021D920FFF7EAFD00212220FFF7E6FDFF
:100EC0000021DA20FFF7E2FD00211220FFF7DEFD0E
:100ED0000021DB20FFF7DAFD00212020FFF7D6FDFF
:100EE00000218D20FFF7D2FD00211420FFF7CEFD59
:100EF0000021AF20FFF7CAFDFFF73CFE10BD000048
:100F000010B50024FE21802000F0F5F9044600F021
:100F1000DDF8204610BD10B5FFF7F2FF044620466D
:100F200010BD002107E041F60E7100BF0A1EA1F1BD
:100F3000010399B2FAD1021EA0F1010398B2F2D1D5
:100F400070472DE9FE4F002400F09CF8802000F04F
:100F500039F9E8B9F32000F035F93220FFF7E1FF65
:100F600000F090F8812000F02DF900BF0EE000F0B5
:100F700073F902A90855012C03D1012000F0C2F831
:100F800002E0002000F0BEF8601C84B2022CEEDB10
:100F900000F09CF89DF809009DF8081040EA012A2D
:100FA0002AF0030A504602F01BFB834602F0C0FA07
:100FB0002D4A2E4BCDE9000102F0D2F807462C4A0B
:100FC0002C4B02F0CBF9054601F0F0FF8146484674
:100FD000BDE8FE8F2DE9FE4F002400F053F880207D
:100FE00000F0F0F8E8B9F52000F0ECF8322000F05D
:100FF000A4FD00F047F8812000F0E4F800BF0EE007
:1010000000F02AF902A90855012C03D1012000F0B3
:1010100079F802E0002000F075F8601C84B2022C20
:10102000EEDB00F053F89DF809009DF8081040EA47
:10103000012A2AF0030A504602F0D2FA834602F04F
:1010400077FA0D4A0D4BCDE9000102F089F8074609
:1010500000220B4B02F082F9054601F0A7FF814602
:101060004846BDE8FE8F0000619FC6DE07F7653F7A
:10107000CDCCCCCCCC6C47407644CF7701405F3FA1
:101080000000184010B500F015FA4FF40061D24886
:1010900000F0C1FF022000F02CFD4FF48051CE483B
:1010A00000F0B9FF022000F024FD4FF40061CA48AF
:1010B00000F0B3FF022000F01CFD4FF48051C64841
:1010C00000F0ABFF022000F014FD10BD10B500F0E1
:1010D000F1F94FF40061C04800F09FFF022000F0DA
:1010E00008FD4FF48051BC4800F097FF022000F04B
:1010F00000FD4FF40061B84800F08DFF022000F0C1
:10110000F8FC10BD10B5044600F0D4F94FF480513E
:10111000B14800F082FF2CB14FF40061AE4800F0FE
:101120007AFF04E04FF40061AB4800F076FF022044
:1011300000F0DFFC4FF48051A74800F06CFF022064
:1011400000F0D7FC4FF48051A34800F066FF022066
:1011500000F0CFFC10BD10B500244FF400619E4894
:1011600000F059FF4FF480519B4800F054FF00F00D
:10117000B5F905E0601C84B2B4F5FA7F00D106E051
:101180004FF40061944800F02CFF0028F2D100BF1A
:101190004FF40061904800F024FF30B14FF48051CB
:1011A0008D4800F03AFF002010BD052000F0A1FCA2
:1011B0004FF48051884800F030FF052000F099FC82
:1011C0000120F1E770B50446002600F073F9002510
:1011D00021E004F0800028B14FF400617E4800F067
:1011E0001AFF04E04FF400617B4800F016FF022074
:1011F00000F07FFC4FF48051774800F00CFF022094
:1012000000F077FC4FF48051734800F006FF600651
:10121000040E681CC5B2082DDBDB4FF400616E487C
:1012200000F0F9FE00F05AF9022000F062FC4FF4E1
:101230008051694800F0EFFE022000F05AFC4FF4A4
:101240000061654800F0CDFE06434FF480516248CE
:1012500000F0E3FE304670BD70B500244FF400612D
:101260005D4800F0D8FE00F039F900251EE0600668
:10127000040E022000F03DFC4FF48051564800F06F
:10128000CAFE022000F035FC4FF40061524800F025
:10129000A8FE08B144F001044FF480514E4800F01C
:1012A000BCFE022000F025FC681CC5B2082DDEDB68
:1012B0004FF48051484800F0B0FE204670BD70B534
:1012C00006460C461546FFF7DDFE3046FFF77AFF6F
:1012D00068B92046FFF776FF28B92846FFF772FF66
:1012E00008B9012070BDFFF7F1FE0020FAE7FFF713
:1012F000EDFE0020F6E770B505460C46FFF7C2FE8E
:101300002846FFF75FFF48B92046FFF75BFF08B9A3
:10131000012070BDFFF7DAFE0020FAE7FFF7D6FEE6
:101320000020F6E72DE9F04106460F4690461D469F
:10133000FFF7A8FE3046FFF745FF28BB3846FFF70A
:1013400041FF08BBFFF79EFE711CC8B2FFF73AFFD2
:10135000D0B9002411E0FFF77FFF08F80400681EF1
:10136000A04203D10120FFF7CDFE02E00020FFF7ED
:10137000C9FE0A2000F0BDFB641CAC42EBDBFFF7AA
:10138000A5FE0120BDE8F081FFF7A0FE0020F9E7EF
:101390002DE9F04180460D4616461F46FFF772FEC6
:1013A0004046FFF70FFF98B92846FFF70BFF78B9C3
:1013B000002406E0305DFFF705FF0120FFF7B1FDD7
:1013C000641CBC42F6DBFFF781FE0120BDE8F08122
:1013D000FFF77CFE0020F9E70008014000B587B068
:1013E00001214FF4017001F025F84FF4004000F0A6
:1013F00085FF0220ADF8180000208DF81B0006A91B
:101400003F4800F05BFD3F4801F07CFA002001906E
:101410008DF808008DF809004FF46020039000203B
:10142000049001208DF8140001A9364801F091FACA
:101430000121344801F0B9FA324801F0D8FA00BF6E
:10144000304801F0D9FA0028FAD12E4801F0DEFA2E
:1014500000BF2C4801F0DFFA0028FAD141F2040065
:10146000ADF8180010208DF81B0003208DF81A002D
:1014700006A9234800F022FD0421214800F0CBFDFD
:101480000820ADF8180010208DF81B0006A91C4894
:1014900000F014FD4FF40060ADF8180014208DF832
:1014A0001B0003208DF81A0006A9154800F006FD60
:1014B00007B000BD08B50121042000F0BBFF4FF4C8
:1014C0000060ADF8000014208DF8030003208DF8B3
:1014D000020069460A4800F0F1FC08BD08B5012188
:1014E000042000F0A7FF4FF40060ADF800000420D6
:1014F0008DF803006946024800F0E0FC08BD0000DA
:10150000000801400024014070B505460C46FFF775
:10151000B9FDD020FFF756FE28B92846FFF752FE46
:101520002046FFF74FFEFFF7D1FD70BD70B50446B2
:10153000FFF7A8FDD020FFF745FE68B92046FFF76A
:1015400041FEFFF79FFDD120FFF73CFEFFF784FE31
:1015500005460120FFF7D6FDFFF7B8FD284670BD10
:101560002DE9F04180460D4616461F4627B3FFF78A
:1015700089FDD020FFF726FED8B94046FFF722FEAE
:10158000FFF780FDD120FFF71DFE00240FE0FFF7DD
:1015900063FE2870701EA04203D10120FFF7B2FD48
:1015A00002E00020FFF7AEFD6D1C601CC4B2B44227
:1015B000EDDBFFF78BFD14E0FFF764FDD020FFF7B4
:1015C00001FE60B94046FFF7FDFD002405E02878E4
:1015D000FFF7F8FD6D1C601CC4B2B442F7DBFFF7E7
:1015E00075FDBDE8F0811CB50446E4B30123072274
:1015F00069460020FFF7B4FF9DF8000000F07F006F
:10160000A949086108460069A8490968884207D0C5
:101610000120A7490860A4480069A449086002E0C5
:101620000020A34908609DF8010000F07F009E495A
:10163000C8609DF8020000F03F0088609DF803003C
:1016400000F00700C8709DF8040000F03F0008712A
:101650009DF8050000F01F0088709DF8060040F41A
:101660000050088022E0FFE78F48007C8DF80000E2
:101670008D48007B8DF801008B48007A8DF80200C0
:101680008948C0788DF80300874800798DF80400F8
:10169000854880788DF80500834800788DF806002D
:1016A0000023072269461846FFF75AFF1CBD10B5F4
:1016B0000446207C7F490870207B4870207A88701F
:1016C000E078C87020790871A07848712078887116
:1016D000002307221846FFF743FF00210E20FFF7E3
:1016E00013FF00210F20FFF70FFF10BD10B50F20D3
:1016F000FFF71CFF00F0800008B1012010BD0E2094
:10170000FFF714FF00F0800008B10120F6E7002089
:10171000F4E710B50120FFF766FF6348008A302127
:1017200001EB2010644988715F48007C00F00F00D5
:101730003030C8715C488089302101EB20105E494F
:10174000C8705948007B00F00F00303008715648CF
:101750000089302101EB2010574908705248007A67
:1017600000F00F00303048704F480079302101EB15
:101770002010524908724C48007900F00F003030B8
:10178000487249488078302101EB20104B4948715C
:101790004548807800F00F0030308871424800885A
:1017A000302101EB2030454908703F480088C0F3E4
:1017B0000320303048703C480088302101EB201075
:1017C0003E4988703848007800F00F003030C8700B
:1017D0003548C07800F00F003030C87210BD2DE9D8
:1017E000F04104461120FFF7A1FE05461220FFF745
:1017F0009DFE861105F0800038B1E843C5B2F04384
:10180000401CC6B22D20207001E020202070304600
:1018100001F0E6FE80464FF07A5101F029FF0746BD
:1018200005F070054FF47A7095FBF0F100FB115054
:10183000642190FBF1F030306070642095FBF0F192
:1018400000FB11500A2190FBF1F03030A0700A200B
:1018500095FBF0F100FB11503030E0702E2020712C
:101860001749384601F004FF804601F099FE3030F8
:1018700060711449384601F0FBFE804601F090FE8D
:10188000C0B20A2190FBF1F201FB12003030A071CE
:101890006078302801D120206070A078302801D1F4
:1018A0002020A070BDE8F0818802002020020020E6
:1018B0001C0200204D0200203802002040020020BF
:1018C000000020410000C84200B587B001214FF45C
:1018D000017000F0AFFD4FF4004000F00FFD02205A
:1018E000ADF8040000208DF8070001A92E4800F093
:1018F000E5FA2E4801F006F8002002908DF80C0061
:101900008DF80D004FF46020049000200590012018
:101910008DF8180002A9254801F01BF80121234881
:1019200001F043F8214801F062F800BF1F4801F0C0
:1019300063F80028FAD11D4801F068F800BF1B4881
:1019400001F069F80028FAD107B000BD10B50446CF
:10195000072301222146154801F093F8012113487D
:1019600001F063F800BF0221104801F0CFF9002810
:10197000F9D00E4801F0ECF810BD2DE9F041074612
:101980000C460025002608E03846FFF7DFFF054437
:10199000052000F0D2F8701CC6B2A642F4DBB5FBFD
:1019A000F4F080B2BDE8F08100080140002401405D
:1019B00010B50121080700F04AFD012001F0E4F90B
:1019C00001F001FA10BD10B500214FF4FE7000F0D7
:1019D0004BFDFFF7EDFF10BD10B500240DE03648BC
:1019E000006840B1601CC4B20A2000F0A6F8642C64
:1019F00003DB012010BD0020FCE7F0E710B501205B
:101A000001F093FAFFF7E8FFF8B1FFF7B3F8002110
:101A1000AE20FFF73BF800218120FFF737F80021C7
:101A20000846FFF733F80021D520FFF72FF80021F3
:101A30000846FFF72BF800218D20FFF727F800213B
:101A40001020FFF723F8FFF7BEFF10BD1FB50121DF
:101A5000052000F0EFFC0120ADF80C0028208DF8E7
:101A60000F0003A9154800F029FA0021084600F0EC
:101A70003BFB0120009000208DF8040008208DF829
:101A8000050001208DF80600684601F0D7F9062010
:101A90008DF8080002208DF809008DF80A00012059
:101AA0008DF80B0002A800F040F9FFF795FF08B988
:101AB000FFF77EFF1FBD000000012142000801402A
:101AC00010B56FF0040000F07AF92E4800682E4936
:101AD000B0FBF1F02D4908700846007800EB40019A
:101AE000C1EBC0104FF6FF7101EAC0002849088021
:101AF00010BD0146254A12784A434FF0E0235A614F
:101B000000229A611A46126942F001021A6100BF6E
:101B10004FF0E022106900F001021AB100F48032A7
:101B2000002AF5D04FF0E022126922F001024FF0B6
:101B3000E0231A6100229A6170470146144A128814
:101B40004A434FF0E0235A6100229A611A46126913
:101B500042F001021A6100BF4FF0E022106900F06C
:101B600001021AB100F48032002AF5D04FF0E022D1
:101B7000126922F001024FF0E0231A6100229A61FB
:101B8000704700002402002000127A005402002056
:101B90005602002010B54FF4A06000F0C1F810BD4F
:101BA000014600BF704700BF494A128802F0400258
:101BB000002AF9D0C2B2464B1B1D1A80704710B5DF
:101BC00086B00446012144F2050000F033FC4FF4D6
:101BD0000070ADF8140003208DF8160018208DF861
:101BE000170005A93B4800F069F94FF48060ADF893
:101BF000140004208DF8170005A9364800F05EF99E
:101C000025208DF8000003208DF801008DF80200DA
:101C100001208DF80300684600F087F80194002049
:101C2000ADF80800ADF80A00ADF80C00ADF81000F2
:101C30000C20ADF80E0001A9254800F0A2FC0122FD
:101C400040F22551224800F034FD0121204800F0E7
:101C500024FD06B010BD10B540F225511C4800F01F
:101C60000DFE10B31A4800F089FDC4B21A4800886E
:101C700000F40040C8B91848008800F4804060B102
:101C80000A2C03D000201449088020E01248008864
:101C900040F400401049088019E00D2C06D10E4890
:101CA000008840F480400C49088010E00A48008811
:101CB000C0F30D0009490C5407480088401C064930
:101CC000088008460088C72801DD0020088010BD74
:101CD00000380140000801405C0200209C02002006
:101CE0000948804709480047FEE7FEE7FEE7FEE7B0
:101CF000FEE7FEE7FEE7FEE7FEE7FEE704480549EC
:101D0000054A064B704700001F090008ED00000857
:101D1000C8030020C8090020C8050020C80500200D
:101D200031490143314A1160704770B500210023E9
:101D30000F22C47804B32D4C246804F4E064C4F585
:101D4000E064210AC1F10403CA40447804FA03F1B3
:101D50008478144021430901254C0678A155047864
:101D600004F01F050124AC4005786D11AD0005F1AC
:101D7000E025C5F8004109E0047804F01F050124BE
:101D8000AC401C4D0678761145F8264070BD1A4AC5
:101D90000A400243154B1B1F1A60704739B1134AA2
:101DA000121D12680243114B1B1D1A6006E00F4AF8
:101DB000121D126882430D4B1B1D1A6070470428C8
:101DC00008D14FF0E021096941F004014FF0E02211
:101DD000116107E04FF0E021096921F004014FF0A3
:101DE000E0221161704700000000FA050CED00E0F0
:101DF00000E400E080E100E080FFFF1F10B5044632
:101E0000CC48844208D10121042000F02DFB0021A0
:101E1000042000F029FB46E0C748844208D1012194
:101E2000082000F021FB0021082000F01DFB3AE013
:101E3000C248844208D10121102000F015FB002186
:101E4000102000F011FB2EE0BD48844208D1012192
:101E5000202000F009FB0021202000F005FB22E0FB
:101E6000B848844208D10121402000F0FDFA002149
:101E7000402000F0F9FA16E0B348844208D101216D
:101E8000802000F0F1FA0021802000F0EDFA0AE055
:101E9000AE48844207D10121801500F0E5FA002107
:101EA000A01500F0E1FA10BD10B50121084600F0C0
:101EB000DBFA0021012000F0D7FA10BD2DE9F04136
:101EC000024600250026002000230024002791F868
:101ED00003C00CF00F0591F803C00CF0100CBCF11E
:101EE000000F03D091F802C04CEA050591F800C03C
:101EF000BCF1000F31D0146800202BE04FF0010C32
:101F00000CFA00F3B1F800C00CEA03069E4220D19F
:101F100083004FF00F0C0CFA03F7BC4305FA03FCE7
:101F20004CEA040491F803C0BCF1280F06D14FF02D
:101F3000010C0CFA00FCC2F814C00AE091F803C0CE
:101F4000BCF1480F05D14FF0010C0CFA00FCC2F8AF
:101F500010C0401C0828D1D31460B1F800C0BCF1F7
:101F6000FF0F34DD546800202EE000F1080C4FF024
:101F7000010808FA0CF3B1F800C00CEA03069E420F
:101F800021D183004FF00F0C0CFA03F7BC4305FA84
:101F900003FC4CEA040491F803C0BCF1280F05D1FE
:101FA00000F1080C08FA0CF8C2F8148091F803C08C
:101FB000BCF1480F07D100F1080C4FF0010808FAF6
:101FC0000CF8C2F81080401C0828CED35460BDE83D
:101FD000F0814FF6FF710180022181700421C170F0
:101FE00070470246002093680B400BB1012000E0CF
:101FF000002070470146886880B270470246002082
:10200000D3680B400BB1012000E00020704701466F
:10201000C86880B2704701617047416170470AB17A
:10202000016100E041617047C16070474FF4803248
:102030000A438261816182618269826970470246D6
:102040000020434B18684FF68073184040EA021096
:1020500008433F4B186070473E49C8617047F0B570
:102060000A46002300240021002500F00046B6F1B6
:10207000004F02D1364EF16901E0354E7168C0F370
:10208000034583B200F44016B6F5401F08D121F095
:1020900070612F4E766826F070662D4F7E6012E0DC
:1020A00000F48016B6F5801F06D1032606FA05F463
:1020B000A14341F0706106E0460D360103FA06F6D1
:1020C000B14341F0706122B1460D360103FA06F6C4
:1020D000314300F00046B6F1004F02D11C4EF161D1
:1020E00001E01B4E7160F0BD30B500228B071C0F64
:1020F0000F2303FA04F2164B08338C1053F82430E4
:102100009343134C08348D1044F8253023468C102B
:1021100053F824308C07240F00FA04F423430C4CAA
:1021200008348D1044F8253030BD0A49DC31086090
:102130007047000000080140000C01400010014001
:102140000014014000180140001C01400020014023
:102150000000014000002042DF48006840F001001C
:10216000DD49086008464068DC490840DA494860B3
:1021700008460068DA490840D74908600846006800
:1021800020F4802008600846406820F4FE00486083
:102190004FF41F0088607047CF49096821F48031EF
:1021A000CD4A11601146096821F480211160B0F513
:1021B000803F03D0B0F5802F0ED106E0C6490968F4
:1021C00041F48031C44A116007E0C349096841F411
:1021D000A021C14A116000E000BF00BF704710B5E8
:1021E00001460022002300204A11012A02D1BA4CE4
:1021F000236806E0022A02D1B74C236A01E0B64CFC
:10220000636A01F01F02012494401C400CB10120BC
:1022100000E0002010BD38B500200090002400250B
:1022200000BF3120FFF7DBFF05460098401C0090FF
:102230000098B0F5A06F01D0002DF2D03120FFF74B
:10224000CEFF08B1012400E00024204638BD01463D
:102250000020A14A106820F0F80040EAC100106098
:102260007047A04908607047024600209A4B5868A2
:1022700020F47C1042EA01031843974B58607047E2
:1022800098490866704701460020934A506820F03C
:1022900003000843506070478F48406800F00C000E
:1022A0007047014600208C4A506820F0F000084337
:1022B0005060704701460020874A506820F4E06073
:1022C00008435060704701460020834A506820F45C
:1022D000605040EAC1005060704729B17E4A527A8E
:1022E00002437D4B5A7204E07B4A527A82437A4B16
:1022F0005A7270477B49D831086070470146002008
:10230000754A506820F440400843506070470021EF
:10231000714A20321170704A82F82010012802D0D0
:1023200004280AD104E001216B4A2032117005E033
:102330000521694A2032117000E000BF00BF7047DC
:102340006949086070476449096A0143624A116239
:102350007047654944390860704730B50021002254
:10236000002400235C4D6D6805F00C0121B10429A7
:1023700005D0082923D105E05C4D056022E05B4DC6
:1023800005601FE0544D6D6805F47012524D6D6884
:1023900005F48034022505EB92421CB9544D554397
:1023A00005600BE04C4D6D6805F400351DB1504DD6
:1023B0005543056002E04D4D5543056002E04B4D2D
:1023C000056000BF00BF444D6D6805F0F0010909CC
:1023D000484D6B5C0568DD4045603F4D6D6805F418
:1023E000E061090A434D6B5C4568DD4085603A4D0C
:1023F0006D6805F46051C90A3E4D6B5C4568DD406F
:10240000C560354D6D6805F44041890B3A4D6B5CF4
:10241000C568B5FBF3F5056130BD29B12E4A526997
:1024200002432D4B5A6104E02B4A526982432A4BE6
:102430005A61704729B1284A92690243264B9A6132
:1024400004E0254A92698243234B9A61704729B17F
:10245000214AD2690243204BDA6104E01E4AD26964
:1024600082431D4BDA61704729B11B4AD26802438F
:10247000194BDA6004E0184AD2688243164BDA60DE
:10248000704729B1144A12690243134B1A6104E0E0
:10249000114A12698243104B1A6170471249403940
:1024A000086070470F49C86470470B49C87170478E
:1024B0000948406A40F08070074948627047014609
:1024C0000020054A92680A400AB1012000E000207D
:1024D0007047014988727047001002400000FFF801
:1024E000FFFFF6FE000042428004424200127A00E2
:1024F00000093D005E0200206E02002010B5044677
:10250000FB48844209D101218803FFF7ADFF002178
:102510004FF48040FFF7A8FF32E0F648844209D12B
:1025200001214804FFF7ADFF00214FF40030FFF711
:10253000A8FF25E0F048844209D101218804FFF773
:10254000A0FF00214FF48020FFF79BFF18E0EB482D
:10255000844209D10121C804FFF793FF00214FF401
:102560000020FFF78EFF0BE0E548844208D10121EF
:102570000805FFF786FF00214FF48010FFF781FF69
:1025800010BD2DE9F04786B005460E460024A24650
:1025900000BFA1460027B08900B100BF2F462C8A9A
:1025A0004CF6FF700440F08804432C82AC894EF650
:1025B000F3100440B088318908437189084304430B
:1025C000AC81AC8A4FF6FF400440B0890443AC8232
:1025D00001A8FFF7C2FEC648874202D1DDF810A06D
:1025E00001E0DDF80CA0A88900F4004040B10AEB3E
:1025F000CA0000EB0A1031684900B0FBF1F807E0AF
:102600000AEBCA0000EB0A1031688900B0FBF1F850
:102610006420B8FBF0F004012009642101FB10895B
:10262000A88900F4004040B1322000EBC900B0FBA3
:10263000F1F000F00700044308E0322000EB09103D
:102640006421B0FBF1F000F00F0004432C8106B0D0
:10265000BDE8F0874FF41651016000218180C180F0
:1026600001810C21418100218181704710B5024612
:102670000020108A4FF2FF0318400B884C88234338
:102680008C882343CC8823431843108210BD00213B
:10269000018041808180C180704721B1828942F4EC
:1026A0000052828104E082894DF6FF731A408281D4
:1026B0007047F0B50346002400260025002040F6B0
:1026C0006A17B94200D100BF1846C1F3421401F0A5
:1026D0001F06012707FA06F5012C01D10C3004E092
:1026E000022C01D1103000E014301AB107682F43DA
:1026F000076002E00768AF430760F0BD1AB1838A44
:102700000B43838202E0838A8B4383827047028A71
:102710004FF6F0731A400282028A0A43028270471F
:1027200082894FF2FF731A40828182890A43828133
:10273000704721B1828942F00202828104E08289DD
:102740004FF6FD731A4082817047028A4FF6DF739D
:102750001A400282028A0A430282704721B1028A29
:1027600042F48042028204E0028A4BF6FF731A4070
:1027700002827047C1F30802828070470146888850
:10278000C0F308007047818941F0010181817047E1
:10279000028BD2B20283028B42EA0122028370478B
:1027A000028B02F47F420283028B0A43028370474A
:1027B00021B1828A42F02002828204E0828A4FF6AE
:1027C000DF731A408282704721B1828A42F0100280
:1027D000828204E0828A4FF6EF731A408282704749
:1027E00021B1828A42F00802828204E0828A4FF696
:1027F000F7731A408282704721B1828942F4004205
:10280000828103E08289C2F30E028281704721B186
:10281000828A42F40062828204E0828A4FF2FF736D
:102820001A4082827047828A4FF6FB731A40828276
:10283000828A0A438282704721B1828A42F0020270
:10284000828204E0828A4FF6FD731A4082827047CA
:1028500002460020B1F5007F00D100BF13880B4075
:102860000BB1012000E00020704701F40072B2F5C6
:10287000007F00D100BFCA430280704770B5024696
:10288000002400230025002040F66A16B14200D142
:1028900000BFC1F3421501F01F03012606FA03F33E
:1028A000012D02D19689334006E0022D02D1168A0D
:1028B000334001E0968A33400C12012606FA04F4F4
:1028C0001688344013B10CB1012000E0002070BD27
:1028D00010B50022002340F66A14A14200D100BFC7
:1028E0000A1201249440A3B2DC43048010BD00000E
:1028F000003801400044004000480040004C0040C7
:102900000050004010B50446FA48844208D1012125
:102910004015FFF7A9FD00216015FFF7A5FD17E0A1
:10292000F548844208D101210015FFF79DFD0021E3
:102930002015FFF799FD0BE0F048844208D10121F2
:10294000C803FFF791FD00214FF40040FFF78CFD15
:1029500010BD30B50246002000235068E84C2040EE
:102960000D790C6844EA0524204350609068E54CDA
:102970002040D1E902542C434D7944EA45042043D8
:102980009060D06A20F470000C7C641EE4B2234393
:1029900040EA0350D06230BD0021016001714171F5
:1029A0008160C16001210174704721B1826842F0E9
:1029B0000102826003E0826822F0010282607047B7
:1029C00021B1826842F48072826003E0826822F45E
:1029D00080728260704710B50023CBB21AB1446890
:1029E0001C43446002E044689C43446010BD81681D
:1029F00041F0080181607047014600208A6802F0BA
:102A000008020AB1012000E000207047816841F00F
:102A1000040181607047014600208A6802F00402C8
:102A20000AB1012000E00020704721B1826842F421
:102A3000A002826003E0826822F4A00282607047F4
:102A4000014600208A6802F480020AB1012000E0F9
:102A50000020704710B50A4600210023416821F488
:102A60006041531E41EA4331416010BD21B14268CB
:102A700042F40062426003E0426822F40062426075
:102A80007047F0B504460D4600200021092D11DDE8
:102A9000E068A5F10A0606EB4607072606FA07F1E5
:102AA0008843A5F10A0606EB460603FA06F1084339
:102AB000E0600CE0206905EB4507072606FA07F100
:102AC000884305EB450603FA06F108432061072A0F
:102AD0000FDA606B561E06EB86071F2606FA07F113
:102AE0008843561E06EB860605FA06F10843606326
:102AF00022E00D2A0FDA206BD61F06EB86071F2671
:102B000006FA07F18843D61F06EB860605FA06F19A
:102B10000843206310E0E06AA2F10D0606EB860789
:102B20001F2606FA07F18843A2F10D0606EB86067A
:102B300005FA06F10843E062F0BD21B1826842F473
:102B40008012826003E0826822F480128260704703
:102B50000146C86C80B2704766484C3000687047C8
:102B600021B1426842F48062426003E0426822F48C
:102B700080624260704721B1426842F480524260F4
:102B800003E0426822F48052426070470A46002106
:102B9000816821F4E04111438160704721B182686E
:102BA00042F40042826003E0826822F400428260C4
:102BB000704721B1826842F40212826003E08268A9
:102BC00022F4021282607047014600208A6802F4F3
:102BD00000120AB1012000E000207047F0B5044661
:102BE0001546002000220026092911DDE068A1F128
:102BF0000A0707EB470C072707FA0CF29043A1F1ED
:102C00000A0707EB470703FA07F21043E0600CE0FE
:102C1000206901EB410C072707FA0CF2904301EB06
:102C2000410703FA07F210432061A06BC0F301567D
:102C3000EF1C06F1010CA7EB0C0707EB870C1F2715
:102C400007FA0CF29043EF1C06F1010CA7EB0C07FE
:102C500007EB870701FA07F21043A063F0BD10B538
:102C60000A4600210023816B21F44011531E41EAE2
:102C70000351816310BD08B5002300930090009BB1
:102C80000B440093009B1A6008BD08B50246002063
:102C90000090009201F12800009B184400900098D9
:102CA000006880B208BD0A4600214168164B1940F1
:102CB0001143416070474162826270470A460021B9
:102CC000416821F01F0111434160704740B109493B
:102CD0000831096841F40001064A0832116007E032
:102CE00004490831096821F40001024A08321160E0
:102CF000704700000024014000280140003C0140D2
:102D0000FFFEF0FFFDF7F1FFFFFD3FFF0246002051
:102D100013680B400BB1012000E000207047CA434C
:102D20000260704770B502460020002300240B1299
:102D30005568CEB205EA060415681D4015B10CB100
:102D4000012000E0002070BD00220A12D34303607E
:102D50007047000010B501210807FFF792FB002122
:102D60004FF08050FFF78DFB10BD2A490862704775
:102D700028490861704701460020274A106820F062
:102D8000E0000843106070472249A0310860704796
:102D900010B502460020204B186820F003001043B5
:102DA00018601E4B1B6843F004031C4C2360012970
:102DB00001D130BF00E020BF184B1B6823F0040393
:102DC000164C236010BD1448006840F004001249FE
:102DD00008600846006840F0020008600F4800687C
:102DE00040F004000D49086000BF00BF30BF7047CD
:102DF00001460020084A52680A400AB1012000E05A
:102E0000002070470449096841EA8001024A1160C4
:102E10007047000000000E420070004010ED00E01E
:102E2000002044490860091D0860091D0860091D4B
:102E3000086041483F4914310860704700213D490E
:102E40008279002A3AD00A46126803689A430B46F0
:102E50001A600A1D126803689A430B1D1A600279F2
:102E600011440A6803681A430A60324A0832126839
:102E700003689A432F4B08331A601A1D12680368BF
:102E80009A432C4B0C331A604279102A0ED11A1F28
:102E9000126803681A43274B08331A601A1D126818
:102EA00003681A43234B0C331A600DE02149427921
:102EB00011440A6803681A430A6005E00279114464
:102EC0000A6803689A430A60704700210160017133
:102ED0000C21417100218171704716491031096838
:102EE0000143144A10321160704701460020114A14
:102EF000143212680A400AB1012000E00020704735
:102F00000C49143108607047014600200022094B2B
:102F10001B6803EA0102074B14331B680B4013B113
:102F20000AB1012000E00020704702491431086016
:102F30007047000000040140FFFF0F00704770471A
:102F4000704770477047754600F02CF8AE46050094
:102F50006946534620F00700854618B020B5FEF7B5
:102F6000CDFEBDE820404FF000064FF000074FF0C7
:102F700000084FF0000B21F00701AC46ACE8C00997
:102F8000ACE8C009ACE8C009ACE8C0098D467047A0
:102F900010B50446AFF300802046BDE81040FDF7B1
:102FA0000CB90000004870476403002021F0004283
:102FB000A2F16052B2F5801F01F0004328BFD2F1A8
:102FC0007F6C0BD95FEA001C43EAC20242EB5070EF
:102FD00018BF704728BF20F001007047B2F5801F6E
:102FE000BCBF184670474FEA410C1CF5001F02D2C7
:102FF000084600F004BC70B500F05CF900000089E0
:10300000FFF7F6BF4FF00040A0F5800070470000CA
:1030100010B591EA030F48BF83F0004300F1A68189
:10302000841A71EB030C05D2121943EB0C03001B3D
:1030300061EB0C01DFF824E14FEA1154A4EB135CBF
:103040001EEA430F18BF9EEA445F73D023EA0E03C3
:10305000DCF1200E21EA045143F4801332D322FA2A
:103060000CFE10EB0E0023FA0CFE41EB0E01CCF12E
:10307000200E03FA0EFE10EB0E0051F10001B1F527
:10308000801FCCF1200E32D201EB045112FA0EF265
:10309000BDE8104058BF7047401C38BF5FEA42028D
:1030A00018BF7047002814BF20F0010041F1000153
:1030B0004FEA410313F5001F38BF7047A1F1C0412B
:1030C00000F046B9012A43EB0302ACF1200CDCF11D
:1030D0001F0E32BF4FF0000E23FA0CF310EB03006B
:1030E00041EB0451B4EB115FD0D0A1EB045101F5D9
:1030F000801149085FEA300001EB04510ED350F112
:10310000000038BF12FA0EFE08D1BDE81040C9E732
:10311000401C38BF5FEA4202CAD1C3E7BDE8104095
:103120004FEA410313F5001F38BF7047A1F1C041BA
:1031300000F00EB99EEA445F08D011EA5E0FBDE8C8
:10314000104004BF01F0004100207047BDE810406E
:1031500070B500F0AFF800BF64FBBE3E0000E0FFBA
:10316000DFF848C170B51CEA111E1EBF1CEA13151A
:103170009EEA0C0F95EA0C0F00F06F8081EA0304C1
:1031800023EA4C134EEAD47E21EA4C1141F480111B
:1031900043F48013AE44A1FB024CA0FB0365AEF1E7
:1031A0007F7E361955EB0C05A1FB034C4CF1000357
:1031B000A0FB021C16EB0C06654153F1000309420B
:1031C00018BF46F0010613F4007F0BD14FEA03311C
:1031D0004FEA0530340341EA155140EA16506FF0CA
:1031E00003020AE04FEAC3214FEAC520F40241EA94
:1031F000555140EA56506FF0020202EB2E4201EBAD
:10320000025585EACE710AD05FEA440C18BF24F05B
:10321000004450F1000041F1000120EAD47040F276
:10322000FE7C624500D270BDA84214BF4FF08044BE
:103230004FF04044002E08BF0024BEF1806FA8BFAD
:10324000A1F1C041BDE8704080F282804FF00000E3
:1032500001F1C04101F0004170479EEA0C0F0CEAF9
:10326000131518BF95EA0C0F06D04FF0000081EA45
:10327000030E0EF0004170BD00F01CF88900013E05
:1032800000F007B800F009B84FEA430C5FEA5C5C55
:1032900008D081EA030100F05BB84FEA410C5FEA15
:1032A0005C5CF6D14FF00000014970470000FF0759
:1032B0000000F87F0EF1020E2EF0030E5EF8046B94
:1032C000364205D4012A43EB030515F5001F12D839
:1032D000012841EB010C1CF5001F0CD80ED14FEA60
:1032E000D17C15F5001F0CEB4C0C0CF1020C08BF47
:1032F0004CEBD37C04E04FF0080C01E04FEAD37CA8
:103300000CEB4C0526FA05F606F00706B6F1040CA0
:1033100006D20EEB860CBDE870404CF0010C604705
:10332000DFE80CF0090B02024FF000414FF0000003
:10333000A1F5002170BD19461046012851EB01048A
:1033400018BFD4F5001484BF002001F0004170BD07
:103350000808A0F500114FEA3101704710B591EA55
:10336000030F48BF83F000433FF55AAE841A71EB58
:10337000030C07D212198CF0004C43EB0C03001B1A
:1033800061EB0C01DFF8A4E14FEA1154A4EB135CEC
:103390001EEA430F18BF9EEA445F00F0B08023EAA4
:1033A0006E03524221EA0451C3EB6E0338BF5B1E29
:1033B000DCF1200E25D322FA0CFE10EB0E0043FAAE
:1033C0000CFE41EB0E01CCF1200E03FA0EFE10EBC9
:1033D0000E0051F10001CCF1200E29D412FA0EF2A8
:1033E00001EB0451BDE8104058BF7047401C1CBFA2
:1033F000B2F1004F704700280CBF491C20F00100BB
:10340000704712EB020E43EB030218BF4FF0010EA0
:103410004EEA4202ACF1200CDCF11E0E54D943FA04
:103420000CFE10EB0E0051F1FF31CCF11E0ED5D584
:103430000EF1010E12FA0EFE404141EB010101EBCB
:10344000445C5FEA5C5C10D910EBDE7001EB045168
:1034500038BFBEF1004FBDE8104018BF70470028CC
:103460000CBF491C20F00100704730D24FEAD42C29
:1034700011F5001124F400641BD0B1FA81F20B3A6B
:10348000A41AA41ED2F12003914030FA03F3194389
:10349000904001EBCC71002C01EB0451BDE81040D1
:1034A000A8BF704701F1C0414FF0000001F000419A
:1034B0007047B0FA80F310FA03F100D110BDE41A9E
:1034C000173C4805C90AE4E701EB045110BD491057
:1034D00001EB0451BDE810404FEA300002E04FF02C
:1034E000000170474A0008BF0042F8D0B2F5001F43
:1034F00028BF704701F000414FF0000070479EEA7E
:10350000445F07D011EA5E0FBDE8104004BF002100
:1035100000207047BDE8104070B5FFF7CBFE00BF3C
:1035200040DFF63E83F00041104670470000E0FFA8
:1035300043004FEAD30C4FEA3C0C43401FBF400707
:103540000CF1605113F0FE4F70471CF0006F03D177
:1035500000200CF0004170470CF0004343EA50702B
:1035600010B540EACC0000F004F900BF0000009262
:103570004FEA0001FFF7ECBE4FF000414FF00000B2
:10358000A1F500217047401058BFC0F140404910DC
:1035900058BFC1F140418142EFF300807047000005
:1035A000C10DD1F19E0206DB4FEA002343F0004338
:1035B00023FA02F07047004207D54FEA4001B1F10B
:1035C000FE4F02D24FF00000704710B500F0D1F866
:1035D00049922480002070476FEA20007047000065
:1035E000B0FA80F310FA03F2C3F19D030AD0D905B3
:1035F00001EB1220530638BF704700F1010008BFED
:1036000020F001007047000050EA010C00F1138027
:103610001CF5000F58BFBCF5000F01D4884270475D
:1036200007D710F5000F58BF11F5000F15D48842C9
:103630007047894270471CF5000F04D5BCF5000F98
:10364000F7D5814270474FF0807C1CEB400F38BFAC
:103650001CEB410F01D28142704710B500F089F890
:10366000922449004FF000504FF08051FFF78BBF7C
:103670004FF47F0C1CEAD0121EBF1CEAD11392EA51
:103680000C0F93EA0C0F00F0478090EA010F48BF3F
:1036900042F480724FF0004C4CEA00204CEA0121C9
:1036A00002EB0302A0FB0113A2F50002002918BFE0
:1036B00043F001035B0028BF4FEA330342EB224291
:1036C0005FEA132C4CEBC2502EBFBCEB436FB2F53C
:1036D0007C0F70474FEA036CBCF1004F08BF20F02D
:1036E0000100B2F57C0F38BF70470BD582F0FF02A6
:1036F00012F5803FC8BF704700F1C040D8BF00F04E
:103700000040704700F5000C5FEA4C0C48BF704762
:10371000B0F1C04000F073B890EA010F0CEAD11389
:1037200048BF42F48072624538BF634504D280EAE4
:10373000010000F00040704710B500F01AF800BF1B
:103740008900013E00F007B800F009B85FEA410CBB
:103750005FEA1C6C08D080EA010000F050B85FEA14
:10376000400C5FEA1C6CF6D14FF00040A0F58000E1
:1037700070470EF1020E2EF0030E5EF8044B244249
:1037800004D44FEA4102B2F17F4F11D84FEA40030F
:10379000B3F17F4F0CD80ED14FEAD07CB2F17F4FFE
:1037A0000CEB4C0C0CF1020C08BF4CEBD17C04E090
:1037B0004FF0080C01E04FEAD17C0CEB4C0324FAEB
:1037C00003F404F00704B4F1040C06D20EEB840CED
:1037D000BDE810404CF0010C6047DFE80CF0070832
:1037E00002024FF00040A0F5800010BD08464200E4
:1037F00018BFD2F1807288BF00F0004010BDFF21D9
:1038000041EAD050C005704751EA000C00F1138026
:103810001CF5000F58BFBCF5000F01D48142704762
:1038200007D711F5000F58BF10F5000F15D48142CE
:103830007047894270471CF5000F04D5BCF5000F96
:10384000F7D5884270474FF0807C1CEB410F38BFA2
:103850001CEB400F01D28842704780EA010081EAE8
:10386000000180EA0100FFF7F8BE00000000000040
:103870000000002F000000000700070000147F1464
:103880007F1400242A7F2A12006264081323003662
:103890004955225000000503000000001C22410091
:1038A000000041221C000014083E08140008083ED5
:1038B0000808000000A060000008080808080000D0
:1038C00060600000002010080402003E5149453E9F
:1038D0000000427F400000426151494600214145BD
:1038E0004B31001814127F10002745454539003C24
:1038F0004A494930000171090503003649494936F2
:1039000000064949291E00003636000000005636E0
:1039100000000008142241000014141414140000C4
:103920004122140800020151090600324959513E52
:10393000007C1211127C007F49494936003E41410A
:103940004122007F4141221C007F49494941007FBB
:1039500009090901003E4149497A007F0808087FAA
:103960000000417F4100002040413F01007F0814DA
:103970002241007F40404040007F020C027F007FD8
:103980000408107F003E4141413E007F09090906BD
:10399000003E4151215E007F0919294600464949F0
:1039A00049310001017F0101003F4040403F001FBD
:1039B0002040201F003F4038403F0063140814633C
:1039C00000070870080700615149454300007F4126
:1039D000410000552A552A55000041417F0000044E
:1039E0000201020400404040404000000102040087
:1039F000002054545478007F4844443800384444EC
:103A0000442000384444487F003854545418000877
:103A10007E0901020018A4A4A47C007F0804047895
:103A20000000447D4000004080847D00007F10281D
:103A300044000000417F4000007C04180478007CB2
:103A40000804047800384444443800FC2424241832
:103A50000018242418FC007C08040408004854546E
:103A6000542000043F444020003C4040207C001C87
:103A70002040201C003C4030403C0044281028449A
:103A8000001CA0A0A07C004464544C4414141414E2
:103A900014140000000000000000000000000000FE
:103AA0000000000000F800000000000000333000BB
:103AB000000000100C06100C0600000000000000C2
:103AC000000040C07840C0784000043F04043F0438
:103AD0000400007088FC08300000001820FF211E40
:103AE0000000F008F000E018000000211C031E2177
:103AF0001E0000F00888700000001E2123241927F2
:103B0000211010160E000000000000000000000050
:103B10000000000000E01804020000000007182068
:103B2000400000020418E0000000004020180700D8
:103B30000000404080F0804040000202010F01027E
:103B40000200000000F0000000000101011F01015F
:103B50000100000000000000000080B070000000C4
:103B60000000000000000000000000010101010150
:103B700001010000000000000000003030000000E3
:103B800000000000000080601804006018060100BA
:103B9000000000E010080810E000000F10202010C6
:103BA0000F00001010F8000000000020203F20202F
:103BB00000000070080808887000003028242221C6
:103BC000300000300888884830000018202020117C
:103BD0000E000000C02010F8000000070424243F5D
:103BE000240000F808888808080000192120201106
:103BF0000E0000E0108888180000000F112020112E
:103C00000E0000380808C83808000000003F000017
:103C100000000070880808887000001C2221212202
:103C20001C0000E010080810E00000003122221102
:103C30000F00000000C0C000000000000030300095
:103C40000000000000800000000000008060000014
:103C5000000000008040201008000001020408104D
:103C6000200040404040404040000404040404045C
:103C7000040000081020408000000020100804020A
:103C80000100007048080808F0000000003036010C
:103C90000000C030C828E810E000071827242314CB
:103CA0000B000000C038E0000000203C2302022787
:103CB000382008F8888888700000203F20202011D4
:103CC0000E00C0300808080838000718202020100F
:103CD000080008F808080810E000203F2020201005
:103CE0000F0008F88888E8081000203F20202320D3
:103CF000180008F88888E8081000203F200003001A
:103D00000000C03008080838000007182020221ED4
:103D1000020008F808000008F808203F21010121EE
:103D20003F20000808F8080800000020203F20205D
:103D3000000000000808F8080800C08080807F00AC
:103D4000000008F888C028180800203F2001263805
:103D5000200008F8080000000000203F202020205C
:103D6000300008F8F800F8F80800203F003F003F56
:103D7000200008F830C00008F808203F200007188D
:103D80003F00E01008080810E0000F10202020106D
:103D90000F0008F808080808F000203F2101010181
:103DA0000000E01008080810E0000F182424385024
:103DB0004F0008F8888888887000203F2000030C96
:103DC000302000708808080838000038202121229F
:103DD0001C00180808F8080818000000203F200000
:103DE000000008F808000008F808001F2020202024
:103DF0001F000878880000C83808000007380E0146
:103E00000000F80800F80008F800033C0700073C31
:103E10000300081868808068180820302C03032CE1
:103E200030200838C800C83808000000203F2000B3
:103E3000000010080808C838080020382621202073
:103E40001800000000FE020202000000007F404057
:103E50004000000C30C000000000000000010638E7
:103E6000C00000020202FE000000004040407F004F
:103E70000000000004020202040000000000000034
:103E80000000000000000000000080808080808032
:103E9000808000020204000000000000000000001A
:103EA000000000008080808000000019242222226F
:103EB0003F2008F8008080000000003F1120201102
:103EC0000E000000008080800000000E11202020E5
:103ED0001100000000808088F800000E11202010E2
:103EE0003F200000808080800000001F22222222CC
:103EF0001300008080F0888888180020203F202050
:103F000000000000808080808000006B9494949377
:103F1000600008F8008080800000203F2100002021
:103F20003F2000809898000000000020203F2020C3
:103F30000000000000809898000000C08080807F12
:103F4000000008F8000080808000203F24022D300F
:103F50002000000808F8000000000020203F20207A
:103F600000008080808080808000203F20003F20F3
:103F7000003F8080008080800000203F21000020E2
:103F80003F200000808080800000001F2020202033
:103F90001F00808000808000000080FFA120201191
:103FA0000E000000008080808000000E112020A004
:103FB000FF80808080008080800020203F212000C2
:103FC00001000000808080808000003324242424AD
:103FD0001900008080E0808000000000001F202089
:103FE00000008080000000808000001F2020201042
:103FF0003F20808080000080808000010E30080615
:10400000010080800080008080800F300C030C3025
:104010000F0000808000808080000020312E0E3153
:104020002000808080000080808080818E70180653
:10403000010000808080808080000021302C2221BF
:10404000300000000000807C020200000000003F01
:10405000404000000000FF00000000000000FF00E2
:1040600000000002027C800000000040403F000091
:10407000000000060101020204040000000000002C
:1040800000000000A44000080000002074020000AE
:1040900028010008CC4100087402002054070000E9
:1040A000840100081116060AFE0AC612E012F00288
:1040B00014F80416FCFCFC8DF8F8F0B0019BF8F83D
:1040C0003E9DF8F830301C4EB0B0303030208F7844
:1040D00048FE82BABA030218FE3DFFFFFE06014CFD
:1040E000FFFFFF09290A712A60011D6FEFEF6701C9
:1040F0001C7F7F7F062DE7EFEF6F15693D68083065
:1041000030313131F1F1051980793D0110280A244F
:10411000A42E24E4242EA424B910094A4C48F848BB
:104120004C4AF8EC1F1F0F80C41F1F1F380980BFA7
:10413000FFF3F33333F305BCFFBFBFBD113F80C0B6
:10414000F07E3F0F0C3AC00129801CC0201001AB4B
:1041500020C00A11300A120A07027F02070A121E43
:104160000B0A0A0A7F04A20B04113F3F3F280F18D5
:104170001C0C0E070703010D0C1C3C3F1F6670084A
:10418000010303070F1E1E19BDCC0F0D0C0129BD25
:10419000980A1F2040404050205F800A0125843645
:1041A0006E01380C010203040607080930303A0397
:1041B000000E15323031332F31302F323020375747
:0C41C000293269362502040608000000C0
:04000005080000ED02
:00000001FF
